:020000040000FA
:060000005CEF14F0120099
:060018001CEF00F01200D5
:06002A000100D6280000D1
:08003000CF00000003000000F6
:08003800D8CFE4FFE0CFE4FFA4
:10004000E46EDACFE4FFE2CFDAFFE9CFE4FFEACFF4
:10005000E4FFF6CFE4FFF7CFE4FFF8CFE4FFF5CFFE
:10006000E4FFF3CFE4FFF4CFE4FFFACFE4FFFBCFEC
:10007000E4FF00EE00F0140EE80403E3EECFE4FF2B
:10008000FBD700EE14F0060EE80403E3EECFE4FF26
:10009000FBD7E652D9CFE6FFE1CFD9FFE652F26AAD
:1000A000946882AA0AD0010EE66E800EE66E200EDB
:1000B000E66EFED8E552E552E55282A80AD0020E5D
:1000C000E66E400EE66E100EE66EF2D8E552E55290
:1000D000E55283A80AD0030EE66E080EE66E100EF7
:1000E000E66EE6D8E552E552E55283AA09D0040E41
:1000F000E66EE66E200EE66EDBD8E552E552E5527E
:100100009EAA8ED0AECF9FF0ABA403D0AB98AB88A5
:1001100087D0ABA203D0AB98AB8882D0F80E000199
:100120009F15F80801E17CD08C807A511EE1800E89
:100130009F15800804E07CC077F07A2B16D0FF0E64
:100140007D5D04E0F00E9F157D119F6F9FC07CF0D8
:10015000F00E9F15C00804E0F00E9F15D00803E1D3
:10016000020E7B6F02D0030E7B6F020E7B5D7A5D09
:1001700027E1F00E7C15900804E0F00E7C15800855
:100180001FE17E519F251A6E1B6A1ABE1B68D8900C
:100190001B5004E6800E1A5C000E1B5811E27E51C3
:1001A0009F251C6EFF0EE76E1C18E8AE02D01C34B3
:1001B00003D0E750D8801C5403E27E519F259F6FE7
:1001C0007A51EA6A770FE96E000EEA229FC0EFFFCC
:1001D0007B057A5D24E3DF6A00017B51DF5C0DE281
:1001E000DF50DF2AEA6A770FE96E000EEA22EF504D
:1001F000E66E3FEC13F0E552EFD7FF0E605D0CE1C9
:1002000061C0E6FF3FEC13F0E55262C0E6FF3FEC51
:1002100013F0E5520001606B7A6B8C9001D07A2B61
:100220000001CF2B000ED023880ED880CF55130E9F
:10023000D05509E2CF6BD06B0001762B76510A08BE
:1002400002E27369766BC80ED66EA00EF26EE552AE
:10025000E552E7CFD9FFE55200EE19F0060EE804AB
:1002600003E3E5CFEDFFFBD700EE13F0140EE80437
:1002700003E3E5CFEDFFFBD7E5CFFBFFE5CFFAFFCB
:10028000E5CFF4FFE5CFF3FFE5CFF5FFE5CFF8FFCE
:10029000E5CFF7FFE5CFF6FFE5CFEAFFE5CFE9FFD2
:1002A000E5CFDAFFE550E5CFE0FFE5CFD8FF10005E
:1002B000D9CFE6FFE1CFD9FFE6528C80FD0EDB50AF
:1002C0008C12020EF36EFC0EDBCFF4FFF350F45CE5
:1002D00006E2FE0EDB50821401E0FBD705D0FE0ED5
:1002E000DB50831401E0FBD7F8D981CF9FF0F5D91B
:1002F000FD0EDB1C8C16FC0EDB50080DF3CFE9FF66
:10030000F4CFEAFF770EE926000EEA22030EE92673
:10031000000EEA22EF5001E098D0800E00019F15F8
:10032000800830E0FC0EDB50080DF3CFE9FFF4CF7E
:10033000EAFF770EE926000EEA22050EE926000EF6
:10034000EA22EF50E66EFC0EDB50080DF3CFE9FF1A
:10035000F4CFEAFF770EE926000EEA22E552E750D5
:10036000EF6EFC0EDB50080DF3CFE9FFF4CFEAFF90
:10037000770EE926000EEA22030EE926000EEA2295
:10038000EF2A63D0FC0EDB50080DF3CFE9FFF4CF6A
:10039000EAFF770EE926000EEA22060EE926000E95
:1003A000EA22EF50FF0815E0FC0EDB50080DF3CFFA
:1003B000E9FFF4CFEAFF770EE926000EEA22060EE7
:1003C000E926000EEA22EFCF14F0F00E9F1514106C
:1003D0009F6FFC0EDB50080DF3CFE9FFF4CFEAFF6F
:1003E000770EE926000EEA22050EE926000EEA2223
:1003F0009FC0EFFFF00E9F15C00804E0F00E9F15A0
:10040000D00812E1FC0EDB50080DF3CFE9FFF4CF6A
:10041000EAFF770EE926000EEA22040EE926000E16
:10042000EA22020EEF6E11D0FC0EDB50080DF3CF66
:10043000E9FFF4CFEAFF770EE926000EEA22040E68
:10044000E926000EEA22030EEF6EFC0EDB50080DCB
:10045000F3CFE9FFF4CFEAFF770EE926000EEA2298
:10046000030EE926000EEA22EFCF14F0FC0EDB505B
:10047000080DF3CFE9FFF4CFEAFF770EE926000E6F
:10048000EA22040EE926000EEA22EF50FE0F145C69
:1004900073E1FC0EDB50080DF3CFE9FFF4CFEAFF68
:1004A000770EE926000EEA22050EE926000EEA2262
:1004B000EF50F00B900813E0FC0EDB50080DF3CF6B
:1004C000E9FFF4CFEAFF770EE926000EEA22050ED7
:1004D000E926000EEA22EF50F00B80084DE1FC0EF9
:1004E000DB50080DF3CFE9FFF4CFEAFF770EE926E2
:1004F000000EEA22070EE926000EEA22EF50000164
:100500009F25156E166A15BE1668D890165004E61B
:10051000800E155C000E16582FE2FC0EDB50080D05
:10052000F3CFE9FFF4CFEAFF770EE926000EEA22C7
:10053000070EE926000EEA22EF509F25176EFF0EE8
:10054000E76E1718E8AE02D0173403D0E750D88012
:10055000175412E2FC0EDB50080DF3CFE9FFF4CF85
:10056000EAFF770EE926000EEA22070EE926000EC2
:10057000EA22EF509F259F6FFC0EDB50080DF3CF52
:10058000E9FFF4CFEAFF770EE926000EEA22E9CF71
:1005900014F0EACF15F0FC0EDB50080DF3CFE9FFA5
:1005A000F4CFEAFF770EE926000EEA22030EE926D1
:1005B000000EEA22EF500F011424E96E000E152000
:1005C000EA6E9FC0EFFFFC0EDB50080DF3CFE9FF92
:1005D000F4CFEAFF770EE926000EEA22030EE926A1
:1005E000000EEA22EFCF14F0FC0EDB50080DF3CF23
:1005F000E9FFF4CFEAFF770EE926000EEA22040EA7
:10060000E926000EEA22EF04145C52E3DF6AFC0ED6
:10061000DB50080DF3CFE9FFF4CFEAFF770EE926B0
:10062000000EEA22040EE926000EEA22EF50DF5CFB
:100630001DE2FC0EDB50080DF3CFE9FFF4CFEAFF1B
:10064000770EE926000EEA22E9CF14F0EACF15F082
:10065000DF50DF2A0F011424E96E000E1520EA6E28
:10066000EF50E66E3FEC13F0E552D1D7FF0E0001DC
:10067000605D0CE161C0E6FF3FEC13F0E55262C043
:10068000E6FF3FEC13F0E5520001606BFC0EDB501F
:10069000080DF3CFE9FFF4CFEAFF770EE926000E4D
:1006A000EA22030EE926000EEA22EF6A8C9010D0AF
:1006B000FC0EDB50080DF3CFE9FFF4CFEAFF770E15
:1006C000E926000EEA22030EE926000EEA22EF2AAE
:1006D000E552E552E7CFD9FF1200D9CFE6FFE1CFCF
:1006E000D9FFE652DF6A800EDF5C02E2DF2AFBD729
:1006F000E552E552E7CFD9FF1200D9CFE6FFE1CFAF
:10070000D9FF060EE126DE6ADD6ADECF14F0DDCF0A
:1007100015F0FD0EDBCF16F0FE0EDBCF17F01550F7
:100720001718E8AE02D0173404D01650145C1750D6
:10073000155837E2040EDB6A050EDB6A040EDBCFC8
:1007400014F0050EDBCF15F0D890155004E6140E0A
:10075000145C000E155820E25BEC13F0020EDB6A0D
:10076000030EDB6A020EDBCF14F0030EDBCF15F0B5
:10077000D890155004E6640E145C000E155806E27D
:10078000020EDB2A030E01E3DB2AECD7040EDB2A80
:10079000050E01E3DB2AD2D7DF2A010E01E3DB2AB3
:1007A000B4D7060EE15C02E2E16AE552E16EE55281
:1007B000E7CFD9FF1200D9CFE6FFE1CFD9FF020E74
:1007C000E1266D966F86320E956E9368946881EC83
:1007D00012F099EC12F0EDEC10F0E5EC0AF08C90D0
:1007E0000001756B736B766B606B0C0E9212320EA0
:1007F000E66EE66A82DFE552E5520C0E80140001D7
:10080000746FD09EF16AF06A9E6AA16A9D6AA26ABC
:10081000F26AF28AF28EC80ED66ED56AD58CD5846D
:10082000D58EDE6ADD6ADECF14F0DDCF15F0D8900C
:10083000155004E6050E145C000E155851E2DECF8B
:10084000E9FFDDCFEAFF030ED890E936EA36E80685
:10085000FBE1770EE926000EEA22030EE926000EE0
:10086000EA22EF6ADECFE9FFDDCFEAFF030ED89080
:10087000E936EA36E806FBE1770EE926000EEA22C1
:10088000050EE926000EEA22EF6ADECFE9FFDDCF92
:10089000EAFF030ED890E936EA36E806FBE1770E68
:1008A000E926000EEA22040EE926000EEA22030ED3
:1008B000EF6EDECFE9FFDDCFEAFFD890E936EA360A
:1008C000E806FBE1770EE926000EEA22070EE9268C
:1008D000000EEA22EF6ADF2A010E01E3DB2AA3D72A
:1008E00000010A0E7D6F0F0E856F0B0E8D6F0E0EC1
:1008F000956F9D6B3CEC09F0500EE66EE66AFDDEEE
:10090000E552E552E66A6CDBE5528C8E8C8C8C8667
:100910008C84010EE66EE66AF0DEE552E5528C9EAE
:100920008C9C8C968C945BEC13F016D8FF0E000117
:10093000735D07E1736B18EC0AF075C0E6FF50DBDE
:10094000E552F1D7020EE15C02E2E16AE552E16EA6
:10095000E552E7CFD9FF1200020E83140001D15DEA
:1009600013E0640EE66EE66AC8DEE552E552020E5A
:1009700083140001D15D08E075C0E6FF31DBE5526C
:10098000020E83140001D16F84B00FD03BEC10F045
:1009900084B009D0040E0001755D05E2752B75C0A9
:1009A000E6FF1EDBE55284A0FED784B20FD03BECFD
:1009B00010F084B209D000017551000805E27507F6
:1009C00075C0E6FF0DDBE55284A2FED784B460D08B
:1009D0003BEC10F084B45AD000017551080DF3CFF0
:1009E000E9FFF4CFEAFF770EE926000EEA22060EB1
:1009F000E926000EEA22EFCF14F00F0E145C1AE283
:100A00007551E66EE66A57DAE552E5520001755116
:100A1000080DF3CFE9FFF4CFEAFF770EE926000EC9
:100A2000EA22060EE926000EEA22EF2A75C0E6FF4A
:100A3000D7DAE55200017551080DF3CFE9FFF4CF85
:100A4000EAFF770EE926000EEA22060EE926000EDE
:100A5000EA22EF50FF081AE17551E66EE66A2BDADA
:100A6000E552E55200017551080DF3CFE9FFF4CFCF
:100A7000EAFF770EE926000EEA22060EE926000EAE
:100A8000EA22EF6A75C0E6FFABDAE55284A4FED72E
:100A900082B06ED03BEC10F082B068D0000175518E
:100AA000080DF3CFE9FFF4CFEAFF770EE926000E39
:100AB000EA22060EE926000EEA22EF5000082CE298
:100AC0007551080DF3CFE9FFF4CFEAFF770EE92661
:100AD000000EEA22060EE926000EEA22EF50FF0879
:100AE0001BE07551E66EE66AE6D9E552E552000173
:100AF0007551080DF3CFE9FFF4CFEAFF770EE92631
:100B0000000EEA22060EE926000EEA22EF0675C064
:100B1000E6FF66DAE5522AD07551080DF3CFE9FFFA
:100B2000F4CFEAFF770EE926000EEA22060EE92648
:100B3000000EEA22EF501AE17551E66EE66ABBD963
:100B4000E552E55200017551080DF3CFE9FFF4CFEE
:100B5000EAFF770EE926000EEA22060EE926000ECD
:100B6000EA22EF6875C0E6FF3BDAE55282A0FED7C5
:100B700082B23BD03BEC10F082B235D0000175510F
:100B8000080DF3CFE9FFF4CFEAFF770EE926000E58
:100B9000EA22070EE926000EEA22EFCF14F0180E23
:100BA000E76E1418E8AE02D0E73402D0E750145CC8
:100BB0001AE27551E66EE66A7ED9E552E552000109
:100BC0007551080DF3CFE9FFF4CFEAFF770EE92660
:100BD000000EEA22070EE926000EEA22EF2A75C06F
:100BE000E6FFFED9E55282A2FED782B43CD03BECB0
:100BF00010F082B436D000017551080DF3CFE9FF33
:100C0000F4CFEAFF770EE926000EEA22070EE92666
:100C1000000EEA22EFCF14F0E80EE76E1418E8AEEB
:100C200002D0143403D0E750D88014541AE275511E
:100C3000E66EE66A40D9E552E55200017551080DAD
:100C4000F3CFE9FFF4CFEAFF770EE926000EEA22A0
:100C5000070EE926000EEA22EF0675C0E6FFC0D9AE
:100C6000E55282A4FED71200D9CFE6FFE1CFD9FF2B
:100C7000E6520C0E9212010EE66EE66A3EDDE55279
:100C8000E5520C0E8014DF6E00017451DF5C27E02A
:100C90007451040A1CE0080A13E0040A0AE0080A76
:100CA00001E01BD0080EDF5C02E11ED801D07AD82B
:100CB00014D00C0EDF5C02E117D801D073D80DD030
:100CC000040EDF5C02E110D801D06CD806D0DF50F2
:100CD00002E10AD801D066D800D0DFCF74F0E55227
:100CE000E552E7CFD9FF1200D9CFE6FFE1CFD9FF18
:100CF000E65200017551080DF3CFE9FFF4CFEAFF8A
:100D0000770EE926000EEA22060EE926000EEA22F8
:100D1000EF50EA6A630FE96E000EEA22EFCFDFFFC1
:100D2000DF2A000EDF9E7551080DF3CFE9FFF4CFE7
:100D3000EAFF770EE926000EEA22060EE926000EEB
:100D4000EA22EF50EA6A630FE96E000EEA22DFCF73
:100D5000EFFF86D8F10EE66E240EE66E000EE66E0C
:100D6000E0EC0CF0E552E552E5520D0EE66EE66A57
:100D7000020EE66EE66A030EE66EE66ADFCFE6FF77
:100D8000E66A49EC0DF0146E080EE15E14500A0E8E
:100D9000E66EE66AB2DCE552E552E552E552E7CF8F
:100DA000D9FF1200D9CFE6FFE1CFD9FFE65200010B
:100DB0007551080DF3CFE9FFF4CFEAFF770EE9266E
:100DC000000EEA22060EE926000EEA22EF50EA6A39
:100DD000630FE96E000EEA22EFCFDFFFDF06000EA1
:100DE000DF9E7551080DF3CFE9FFF4CFEAFF770ED0
:100DF000E926000EEA22060EE926000EEA22EF504E
:100E0000EA6A630FE96E000EEA22DFCFEFFF28D80F
:100E1000E00EE66E240EE66E000EE66EE0EC0CF0E0
:100E2000E552E552E5520D0EE66EE66A020EE66EFA
:100E3000E66A030EE66EE66ADFCFE6FFE66A49EC95
:100E40000DF0146E080EE15E14500A0EE66EE66AAE
:100E500054DCE552E552E552E552E7CFD9FF1200E6
:100E60000001766B7551080DF3CFE9FFF4CFEAFF6F
:100E7000770EE926000EEA22060EE926000EEA2287
:100E8000EF50C009616F7551080DF3CFE9FFF4CF42
:100E9000EAFF770EE926000EEA22060EE926000E8A
:100EA000EA22EF50EA6A630FE96E000EEA22EFCF02
:100EB00062F060691200D9CFE6FFE1CFD9FFE652B8
:100EC000FD0EDBCFE9FFFE0EDBCFEAFF030ED8906D
:100ED000E936EA36E806FBE1770EE926000EEA225B
:100EE000EF50800B800814E1FD0EDBCFE9FFFE0E12
:100EF000DBCFEAFF030ED890E936EA36E806FBE1DD
:100F0000770EE926000EEA22EF500F0BDF6E17D0A6
:100F1000FD0EDBCFE9FFFE0EDBCFEAFF030ED8901C
:100F2000E936EA36E806FBE1770EE926000EEA220A
:100F3000050EE926000EEA22EF500F0BDF6EFD0EC4
:100F4000DBCFE9FFFE0EDBCFEAFF030ED890E936D8
:100F5000EA36E806FBE1770EE926000EEA22030EE8
:100F6000E926000EEA22EF5001E0E9D7B00EDF10CB
:100F7000E66E3FEC13F0E552790EE66E3FEC13F0AF
:100F8000E552E66A3FEC13F0E552FD0EDBCFE9FFD8
:100F9000FE0EDBCFEAFF030ED890E936EA36E8060C
:100FA000FBE1770EE926000EEA22030EE926000E89
:100FB000EA22EF5001E0E9D7B00EDF10E66E3FEC19
:100FC00013F0E5527B0EE66E3FEC13F0E552E66A55
:100FD0003FEC13F0E552E552E552E7CFD9FF12009E
:100FE000D9CFE6FFE1CFD9FFE652FE0EDB50040A6F
:100FF00071E0070A55E0010A39E0030A1DE0010A21
:1010000001E082D083A20CD0CF0EE66E240EE66EF5
:10101000000EE66EC3EC0CF0E552E552E5520BD043
:10102000BE0EE66E240EE66E000EE66EC3EC0CF00D
:10103000E552E552E55268D083A20CD0AD0EE66EC3
:10104000240EE66E000EE66EC3EC0CF0E552E5529F
:10105000E5520BD09C0EE66E240EE66E000EE66E98
:10106000C3EC0CF0E552E552E5524ED083A20CD011
:101070008B0EE66E240EE66E000EE66EC3EC0CF0F0
:10108000E552E552E5520BD07A0EE66E240EE66E7E
:10109000000EE66EC3EC0CF0E552E552E55234D09A
:1010A00083A20CD0690EE66E240EE66E000EE66E8C
:1010B000C3EC0CF0E552E552E5520BD0580EE66E4B
:1010C000240EE66E000EE66EC3EC0CF0E552E5521F
:1010D000E5521AD083A20CD0470EE66E240EE66EBF
:1010E000000EE66EC3EC0CF0E552E552E5520BD073
:1010F000360EE66E240EE66E000EE66EC3EC0CF0C5
:10110000E552E552E55200D0FE0EDB50080DF3CF5C
:10111000E9FFF4CFEAFF770EE926000EEA22070E78
:10112000E926000EEA22EFCFDFFFDFAE2ED0FE0E63
:10113000DB50080DF3CFE9FFF4CFEAFF770EE92685
:10114000000EEA22060EE926000EEA22EF50FF0802
:101150000CE1250EE66E240EE66E000EE66EE0EC67
:101160000CF0E552E552E5520BD0140EE66E240E5B
:10117000E66E000EE66EE0EC0CF0E552E552E5524C
:10118000FF0EDF02F350DF6E29D0FE0EDB50080D9C
:10119000F3CFE9FFF4CFEAFF770EE926000EEA224B
:1011A000060EE926000EEA22EF50FF080CE1030EBE
:1011B000E66E240EE66E000EE66EE0EC0CF0E552F4
:1011C000E552E5520BD0F20EE66E230EE66E000EEF
:1011D000E66EE0EC0CF0E552E552E552FE0EDB5017
:1011E000080DF3CFE9FFF4CFEAFF770EE926000EF2
:1011F000EA22060EE926000EEA22EF50FF0820E060
:10120000030EE66EE66A020EE66EE66AE66EE66AD1
:10121000FE0EDB50080DF3CFE9FFF4CFEAFF770EA7
:10122000E926000EEA22060EE926000EEA22EF2841
:10123000E66EE66A49EC0DF0146E080EE15E14509D
:101240000E0EE66EE66A020EE66EE66AE66EE66A86
:10125000DFCF14F0156A14BE156814C0E6FF15C080
:10126000E6FF49EC0DF0166E080EE15E1650E552F1
:10127000E552E7CFD9FF1200D9CFE6FFE1CFD9FF82
:10128000030EE126DF6A050EDF5C01E391D05BEC23
:1012900013F0DFCFE6FF36EC14F0E552E76E010EF7
:1012A000E7CFDBFF100EF36E010EDBCFF4FFF35040
:1012B000F45C04E3010EDB50FF0812E1DF50080D7F
:1012C000F3CFE9FFF4CFEAFF770EE926000EEA221A
:1012D000060EE926000EEA22010EDBCFEFFF16D044
:1012E000DF50080DF3CFE9FFF4CFEAFF770EE926D0
:1012F000000EEA22060EE926000EEA22EF50E66E04
:10130000DFCFE6FF19EC14F0E552E5525BEC13F089
:10131000050EDF24E66E36EC14F0E552E76E020EA1
:10132000E7CFDBFFDBCF14F0190EE76E1418E8AE41
:1013300002D0E73402D0E750145C20E2020EDBCF8B
:1013400015F0E70EE76E1518E8AE02D0153403D09D
:10135000E750D880155412E2DF50080DF3CFE9FFB3
:10136000F4CFEAFF770EE926000EEA22070EE926FF
:10137000000EEA22020EDBCFEFFF18D0050EDF24AD
:10138000080DF3CFE9FFF4CFEAFF770EE926000E50
:10139000EA22070EE926000EEA22EF50E66E050E5D
:1013A000DF24E66E19EC14F0E552E552DF2A6BD724
:1013B000DF6A100EDF5C30E25BEC13F0100EDF240E
:1013C000E66E36EC14F0E552E66EDF50EA6A630F23
:1013D000E96E000EEA22E552E750EF6EDF50EA6A4E
:1013E000630FE96E000EEA22EFCF14F0800E145C5A
:1013F00011E2C00EDF10E66E3FEC13F0E552DF5055
:10140000EA6A630FE96E000EEA22EF50E66E3FECE7
:1014100013F0E552DF2ACDD75BEC13F0030EE15C4D
:1014200002E2E16AE552E16EE552E7CFD9FF120030
:10143000D9CFE6FFE1CFD9FF020EE1268C80DF6A2B
:10144000050EDF5C01E387D05BEC13F0DFCFE6FF36
:1014500036EC14F0E552E76E010EE7CFDBFF100E1D
:10146000F36E010EDBCFF4FFF350F45C04E3010EE6
:10147000DB50FF082AE1DF50080DF3CFE9FFF4CF7E
:10148000EAFF770EE926000EEA22060EE926000E94
:10149000EA22EFCF14F0010EDB50145C16E0DF50AF
:1014A000080DF3CFE9FFF4CFEAFF770EE926000E2F
:1014B000EA22060EE926000EEA22EF50E66EDFCFA2
:1014C000E6FF19EC14F0E552E5525BEC13F0050E63
:1014D000DF24E66E36EC14F0E552E76E010EE7CF3E
:1014E000DBFF190EF36E010EDBCFF4FFF350F45C5B
:1014F00030E2010EDB50E7082CE2DF50080DF3CF9D
:10150000E9FFF4CFEAFF770EE926000EEA22070E84
:10151000E926000EEA22EFCF14F0010EDB50145C36
:1015200018E0050EDF24080DF3CFE9FFF4CFEAFF42
:10153000770EE926000EEA22E9CF14F0EACF15F083
:101540001450E66E050EDF24E66E19EC14F0E55239
:10155000E552DF2A75D7DF6A100EDF5C29E25BEC0B
:1015600013F0100EDF24E66E36EC14F0E552E76E51
:10157000010EE7CFDBFFDF50EA6A630FE96E000E72
:10158000EA22EF50F36E010EDB50F35C0FE0DF5008
:10159000EA6A630FE96E000EEA22EF50E66E100E63
:1015A000DF24E66E19EC14F0E552E552DF2AD4D7B9
:1015B0005BEC13F08C90020EE15C02E2E16AE55212
:1015C000E16EE552E7CFD9FF1200D9CFE6FFE1CFB8
:1015D000D9FF520EE126D9CFE9FFDACFEAFF200E7C
:1015E000EE6EEE6EEE6EEE6EEE6EEE6EEE6EEE6E1B
:1015F000EE6EEE6EEE6EEE6EEE6EEE6EEE6EEE6E0B
:10160000EE6E4D0EEE6E490EEE6E440EEE6E490E0F
:10161000EE6E200EEE6EEE6EEE6EEE6EEE6EEE6E18
:10162000EE6EEE6EEE6EEE6EEE6EEE6EEE6EEE6EDA
:10163000EE6EEE6EEE6EEE6EEE6AD950280FE96E2B
:10164000DACFEAFF200EEE6EEE6EEE6EEE6EEE6E0E
:10165000EE6EEE6EEE6EEE6EEE6EEE6EEE6EEE6EAA
:10166000EE6EEE6EEE6E4D0EEE6E610EEE6E6E0E68
:10167000EE6E610EEE6E670EEE6E650EEE6E720E23
:10168000EE6E200EEE6EEE6EEE6EEE6EEE6EEE6EA8
:10169000EE6EEE6EEE6EEE6EEE6EEE6EEE6EEE6E6A
:1016A000EE6EEE6EEE6A0A0EE66EE66A7DEC03F012
:1016B000E552E552E10EE66E230EE66E000EE66E92
:1016C000C3EC0CF0E552E552E552E10EE66E230E56
:1016D000E66E000EE66EE0EC0CF0E552E552E552E7
:1016E000040EE66EE66A7DEC03F0E552E552E10E8B
:1016F000E66E230EE66E000EE66EC3EC0CF0E552CD
:10170000E552E552D00EE66E230EE66E000EE66E52
:10171000E0EC0CF0E552E552E552080EE66EE66AA2
:101720007DEC03F0E552E552BF0EE66E230EE66E49
:10173000000EE66EC3EC0CF0E552E552E552AE0E3B
:10174000E66E230EE66E000EE66EE0EC0CF0E5525F
:10175000E552E5520C0EE66EE66A7DEC03F0E552CA
:10176000E5529D0EE66E230EE66E000EE66EC3ECAD
:101770000CF0E552E552E5528C0EE66E230EE66E55
:10178000000EE66EE0EC0CF0E552E552E552100E6C
:10179000E66EE66A7DEC03F0E552E5527B0EE66EFE
:1017A000230EE66E000EE66EC3EC0CF0E552E55239
:1017B000E5526A0EE66E230EE66E000EE66EE0EC73
:1017C0000CF0E552E552E552140EE66EE66A7DEC49
:1017D00003F0E552E552590EE66E230EE66E000E5A
:1017E000E66EC3EC0CF0E552E552E552480EE66EAB
:1017F000230EE66E000EE66EE0EC0CF0E552E552CC
:10180000E552180EE66EE66A7DEC03F0E552E5520D
:10181000370EE66E230EE66E000EE66EC3EC0CF09D
:10182000E552E552E552260EE66E230EE66E000EF8
:10183000E66EE0EC0CF0E552E552E5521C0EE66E69
:10184000E66A7DEC03F0E552E552150EE66E230ED6
:10185000E66E000EE66EC3EC0CF0E552E552E55282
:10186000040EE66E230EE66E000EE66EE0EC0CF063
:10187000E552E552E552200EE66EE66A7DEC03F095
:10188000E552E552F30EE66E220EE66E000EE66EAF
:10189000C3EC0CF0E552E552E552E20EE66E220E84
:1018A000E66E000EE66EE0EC0CF0E552E552E55215
:1018B000240EE66EE66A7DEC03F0E552E552D10EA9
:1018C000E66E220EE66E000EE66EC3EC0CF0E552FC
:1018D000E552E552C00EE66E220EE66E000EE66E92
:1018E000E0EC0CF0E552E552E552280EE66EE66AB1
:1018F0007DEC03F0E552E552AF0EE66E220EE66E89
:10190000000EE66EC3EC0CF0E552E552E5529E0E79
:10191000E66E220EE66E000EE66EE0EC0CF0E5528E
:10192000E552E5522C0EE66EE66A7DEC03F0E552D8
:10193000E5528D0EE66E220EE66E000EE66EC3ECEC
:101940000CF0E552E552E5527C0EE66E220EE66E94
:10195000000EE66EE0EC0CF0E552E552E552F40EB6
:10196000E66E010EE66E7DEC03F0E552E552CFEC3B
:101970000DF0520EE15C02E2E16AE552E16EE552E1
:06198000E7CFD9FF1200C1
:0A198600D9CFE6FFE1CFD9FF010E33
:10199000E66E46DBE552800EE66EAFDBE552FC0EEE
:1019A000DBCFE6FFFD0EDBCFE6FFFE0EDBCFE6FF73
:1019B000F3DAE552E552E552E552E7CFD9FF1200DE
:1019C000D9CFE6FFE1CFD9FF010EE66E29DBE55264
:1019D000C00EE66E92DBE552FC0EDBCFE6FFFD0E9D
:1019E000DBCFE6FFFE0EDBCFE6FFD6DAE552E552AF
:1019F000E552E552E7CFD9FF1200D9CFE6FFE1CF9C
:101A0000D9FF010EE66E0CDBE552800EE66E75DB4B
:101A1000E552100EE76EFD0EDBCFE9FFFE0EDBCFC9
:101A2000EAFFE750E926000EEA22EF6AFD0EDBCF5F
:101A3000E6FFFE0EDBCFE6FF77DAE552E552E55230
:101A4000E7CFD9FF1200D9CFE6FFE1CFD9FF010ED2
:101A5000E66EE6DAE552C00EE66E4FDBE552100E9A
:101A6000E76EFD0EDBCFE9FFFE0EDBCFEAFFE750AE
:101A7000E926000EEA22EF6AFD0EDBCFE6FFFE0E3E
:101A8000DBCFE6FF51DAE552E552E552E7CFD9FF69
:101A90001200D9CFE6FFE1CFD9FF010EE66EC0DA22
:101AA000E552FD0EDBCFE6FFFE0EDBCFE6FFFB0EC1
:101AB000DBCFE6FFFC0EDBCFE6FFA00EE66E000EEE
:101AC000E66EACD8146E060EE15E1450D950F90FD4
:101AD000E96EFF0EDA20EA6E020EEE1801E1ED501B
:101AE0000AE1D950F70FE96EFF0EDA20EA6E400ED8
:101AF000EE26000EED22F70EDBCF14F0F80EDBCF52
:101B000015F0800E1424E66EF8DAE552A00EE66EAB
:101B1000000EE66E09DAE552E552E552E7CFD9FF4D
:101B20001200D9CFE6FFE1CFD9FF010EE66E78DAD9
:101B3000E552FE0EDBCFE6FFA00EE66E000EE66E6F
:101B40006FD9E552E552E552D950FC0FE96EFF0E10
:101B5000DA20EA6E020EEE1801E1ED500AE1D950EA
:101B6000FA0FE96EFF0EDA20EA6E400EEE26000E46
:101B7000ED22FA0EDBCF14F0FB0EDBCF15F0800E5A
:101B80001424E66EBADAE552A00EE66E000EE66E9A
:101B9000CBD9E552E552E552E7CFD9FF1200010E4D
:101BA000E66EABDAE552020EE66EA7DAE5521200F7
:101BB000D9CFE6FFE1CFD9FF020EE126010EDE6E9E
:101BC000DD6AFD0EDB06DBCF14F0FE0E01E2DB0664
:101BD000DBCF15F0145015100EE0D9CFE9FFDACFA6
:101BE000EAFF0A0EEC02F3CFEDFFEF02F3CFEEFFB8
:101BF000F450ED26E6D7DECF14F0DDCF15F014C09B
:101C0000F3FF15C0F4FF020EE15C03E200D0E16ACD
:101C1000E552E16EE552E7CFD9FF1200D9CFE6FFDA
:101C2000E1CFD9FF080EE126F90EDBCFDEFFDBCFD7
:101C3000DDFFFB0EDBCF08F0FC0EDBCF09F0040E5E
:101C400008C0DBFF050E09C0DBFF060EDB6A070ECE
:101C5000DB6A040EDBCF14F0050EDBCF15F00001BC
:101C6000800E15144BE008680968040EDBCF0DF0F8
:101C7000050EDBCF0EF09DEC13F0040E06C0DBFF6B
:101C8000050E07C0DBFFDECF14F0DDCF15F000013D
:101C9000800E151420E0060EDBCF14F0DB2A070EB1
:101CA000DBCF15F001E3DB2AFD0EDB501424E96ED7
:101CB000FE0EDB501520EA6E2D0EEF6E08680968E7
:101CC000DECF0DF0DDCF0EF09DEC13F006C0DEFF91
:101CD00007C0DDFF13D0060EDBCF14F0DB2A070EA2
:101CE000DBCF15F001E3DB2AFD0EDB501424E96E97
:101CF000FE0EDB501520EA6E200EEF6ED950040F59
:101D0000E96EDACFEAFFEE50ED1071E0040EDBCFA2
:101D1000E6FF050EDBCFE6FF4BDFE552E552F3CFE2
:101D200014F0F4CF15F014C00DF015C00EF0DECF96
:101D300008F0DDCF09F077EC13F0020E08C0DBFFEE
:101D4000030E09C0DBFF020EDBCF16F0030EDBCF64
:101D500017F0300E1626000E1722060EDBCF14F0F9
:101D6000DB2A070EDBCF15F001E3DB2AFD0EDB508B
:101D70001424E96EFE0EDB501520EA6E16C0EFFF4C
:101D8000DECF16F0DDCF17F016C0E6FF17C0E6FF76
:101D9000040EDBCFE6FF050EDBCFE6FF09DFE552E1
:101DA000E552E552E7CF17F0E552E7CF16F0F3CF53
:101DB00018F0F4CF19F0020EDBCF08F0030EDBCFE2
:101DC00009F018C00DF019C00EF09DEC13F006508C
:101DD000165C146E07501758156E14C0DEFF15C040
:101DE000DDFF040EDB06050E01E2DB0687D7060EDB
:101DF000DBCF14F0070EDBCF15F0FD0EDB50142403
:101E0000E96EFE0EDB501520EA6EEF6A080EE15C0B
:101E100002E2E16AE552E16EE552E7CFD9FF120036
:101E2000D9CFE6FFE1CFD9FFE652FC0EDB50F00B35
:101E3000E8380F0B300FDF6EDF50390802E2070E73
:101E4000DF26FD0EDBCFE9FFFE0EDBCFEAFFDFCFA3
:101E5000EFFFFC0EDB500F0B300FDF6EDF50390849
:101E600002E2070EDF26010EE76EFD0EDBCFE9FF73
:101E7000FE0EDBCFEAFFE750E926000EEA22DFCFB5
:101E8000EFFF020EE76EFD0EDBCFE9FFFE0EDBCFAC
:101E9000EAFFE750E926000EEA22EF6AE552E55232
:101EA000E7CFD9FF1200D9CFE6FFE1CFD9FF020E6D
:101EB000E126DE6ADD6ADECF14F0DDCF15F0D890C2
:101EC000155004E6100E145C000E155823E2FB0EAC
:101ED000DBCF18F0FC0EDBCF19F0DE501824E96ED2
:101EE000DD501920EA6EEF50E66EFD0EDBCF16F0E6
:101EF000FE0EDBCF17F0DE501624E96EDD50172002
:101F0000EA6EE552E750EF6E05E0DF2A010E01E3CD
:101F1000DB2AD1D7020EE15C02E2E16AE552E16E12
:101F2000E552E7CFD9FF1200D9CFE6FFE1CFD9FFC5
:101F3000020EE126100EDE6EDD6A010EE66E70D82E
:101F4000E552DFCF14F0DF06010EDBCF15F001E222
:101F5000DB061450151016E0FD0EDBCFE9FFFE0E78
:101F6000DBCFEAFFEF500EE0FD0EDBCFE9FFDB2A0F
:101F7000FE0EDBCFEAFF01E3DB2AEF50E66EF5D879
:101F8000E552DFD7020EE15C02E2E16AE552E16E62
:101F9000E552E7CFD9FF1200D9CFE6FFE1CFD9FF55
:101FA000020EE126100EDE6EDD6A010EE66E38D8F6
:101FB000E552DFCF14F0DF06010EDBCF15F001E2B2
:101FC000DB061450151022E0FC0EDBCFF6FFFD0EF1
:101FD000DBCFF7FFFE0EDBCFF8FF0800F55016E071
:101FE000D950FC0FE96EFF0EDA20EA6EEFCFF6FF54
:101FF000EE2AEFCFF7FF000EEE22EFCFF8FFEE2232
:102000000800F550E66EB1D8E552D3D7020EE15C78
:1020100002E2E16AE552E16EE552E7CFD9FF120034
:10202000D9CFE6FFE1CFD9FF020EE126DF6AFE0E2F
:10203000DB50DF5C14E2010EDB6AFE0EF36E010E74
:10204000DBCFF4FFF350F45C08E2010EDB50E76EE7
:10205000010EE7CFDBFFDB2AF0D7DF2AE8D7020E3D
:10206000E15C02E2E16AE552E16EE552E7CFD9FFB9
:10207000120051EF10F0D9CFE6FFE1CFD9FFE652C1
:10208000DF6ADF50146E156AC80E145C000E155816
:1020900003E207D8DF2AF5D7E552E552E7CFD9FFAB
:1020A0001200D9CFE6FFE1CFD9FFE652DF6A800EFA
:1020B000DF5C02E2DF2AFBD7E552E552E7CFD9FF2A
:1020C0001200D9CFE6FFE1CFD9FFE6520F0E9212F0
:1020D0008F0E9216899A899C8988E3DF898AE1DFCD
:1020E0008950DF6EDEDF899ADCDF800EDF1400D0DE
:1020F000E552E552E7CFD9FF1200D9CFE6FFE1CF95
:10210000D9FFF00E92168F0E9216899A899C8998A3
:102110000001C0511BE0C5DF898AC3DFF00E8016C5
:10212000FE0EDB50F00BE8380F0B8012BADF899AF5
:10213000B8DF898AB6DFF00E8016FE0EDB500F0B7B
:102140008012AFDF898AADDF899A0AD0AADF898A37
:10215000A8DFF00E8016FE0EDB508012A2DF899AF7
:10216000A0DFE552E7CFD9FF1200D9CFE6FFE1CFDC
:10217000D9FFF00E92168F0E9216899A898C899843
:102180000001C0511BE08DDF898A8BDFF00E8016C5
:10219000FE0EDB50F00BE8380F0B801282DF899ABD
:1021A00080DF898A7EDFF00E8016FE0EDB500F0B7B
:1021B000801277DF898A75DF899A0AD072DF898A6F
:1021C00070DFF00E8016FE0EDB5080126ADF899AF7
:1021D00068DFE552E7CFD9FF1200D9CFE6FFE1CFA4
:1021E000D9FF020EE1260001C06B656ABD6A0F0EC1
:1021F000C112070EB46E8F0E92163DDF3CDF3BDF3F
:10220000030EE66E7ADFE55236DF030EE66E75DF0B
:10221000E55231DF030EE66E70DFE5522CDF020E71
:10222000E66E6BDFE55227DF0001010EC06F280E5E
:10223000E66E63DFE55204D0380EE66E5EDFE552EF
:102240000C0EE66E5ADFE552060EE66E56DFE552DC
:10225000100EE66E52DFE552010EE66E4EDFE552DD
:10226000020EE66E4ADFE552020EE15C02E2E16A2E
:0C227000E552E16EE552E7CFD9FF120005
:04227C0020202020DE
:10228000206D616E61676572202020200020202073
:102290002020204D4944492D2020202020002020AE
:1022A000202020206D616E61676572202020002053
:1022B000202020204D4944492D202020202020008E
:1022C000202020202020206D616E61676572202013
:1022D00000202020204D4944492D2020202020206E
:1022E000200020202020202020206D616E61676565
:1022F0007220002020204D4944492D2020202020FC
:10230000202020002020202020202020206D616E11
:10231000616765720020204D4944492D202020200E
:1023200020202020200020202020202020202020CD
:102330006D616E61676500204D4944492D20202064
:1023400020202020202020002020202020202020AD
:102350002020206D616E6167004D4944492D202089
:10236000202020202020202020002020202020208D
:102370002020202020206D616E61004944492D20DD
:10238000202020202020202020202000202020206D
:102390002020202020202020206D616E0044492D27
:1023A000202020202020202020202020200020204D
:1023B0002020202020202020202020206D61004986
:1023C0002D20202020202020202020202020200020
:1023D0002020202020202020202020202020206DB0
:1023E000002020202020202020202020202020200D
:1023F000200063682E20202020782D706F736520C8
:1024000020200063682E2D2D2020782D706F73659D
:102410002020200063682E202020782D706F7365A7
:10242000202D20200063682E2D2D20782D706F73B5
:1024300065202D20200041555820202020202020DC
:10244000202055523434004155582020202020208F
:1024500020446972656374004472756D70616473C1
:102460002020202055523434004472756D70616410
:102470007320204469726563740057583720202008
:102480002020202020205552343400575837202057
:102490002020202020446972656374004A554E4F05
:1024A0002D3130362020202055523434004A554EEC
:1024B0004F2D3130362020446972656374004458D2
:1024C0003720202020202020202055523434004462
:1024D0005837202020202020204469726563740032
:1024E00050726F6772616D20646F776E20202020BC
:1024F0000050726F6772616D20757020202020205F
:022500002000B9
:0E250200C00E9412B06A170EAF6E200EAC6EB3
:10251000900EAB6EB86A9D6A9E6A800ED06E000106
:10252000000ECB6F010ECC6F000ECD6F010ECE6F83
:102530001200D9CFE6FFE1CFD9FF020EE12600015C
:10254000000ECB6F010ECC6F000ECD6F010ECE6F63
:10255000010EDB6A100EF36E010EDBCFF4FFF350B9
:10256000F45C4DE2100E9E14146E156A100E1418D1
:1025700001E1155001E0F6D7010EDB50B009AD6E58
:10258000100E9E14146E156A100E141801E11550E9
:1025900001E0F6D7780EAD6E100E9E14146E156A1B
:1025A000100E141801E1155001E0F6D7AD6A100EB7
:1025B0009E14146E156A100E141801E1155001E0F6
:1025C000F6D7010EDB50B009AD6E100E9E14146EDE
:1025D000156A100E141801E1155001E0F6D7790EB6
:1025E000AD6E100E9E14146E156A100E141801E1D3
:1025F000155001E0F6D7AD6A010EDB2AABD7020E0B
:10260000E15C02E2E16AE552E16EE552E7CFD9FF13
:102610001200D9CFE6FFE1CFD9FFFE0EDB500F0B42
:102620009009E66E2CD8E552FD0EDB507F0BE66E6E
:1026300026D8E552FC0EDB507F0BE66E20D8E55223
:10264000E552E7CFD9FF1200D9CFE6FFE1CFD9FF9E
:10265000FE0EDB500F0B8009E66E11D8E552FD0E21
:10266000DB507F0BE66E0BD8E552FC0EDB507F0B88
:10267000E66E05D8E552E552E7CFD9FF1200D9CF73
:10268000E6FFE1CFD9FFFE0EDB50CBC0E9FFCCC0A7
:10269000EAFFEF6E0001CB2B000ECC23000ECB5DCA
:1026A000070ECC5904E3000ECB6F010ECC6FE55240
:1026B000E7CFD9FF12000001CB51CD1902E1CC5177
:1026C000CE1914E09EA812D0CDC0E9FFCEC0EAFF1B
:1026D000EF50AD6ECD2B000ECE23000ECD5D070E5C
:0E26E000CE5904E3000ECD6F010ECE6F120036
:0226EE00006A80
:1026F0000EAE80EF13F00D6C0E1EE86A0E22001E67
:1027000009AE88EF13F0086C091EE86A0922001E62
:1027100046EC14F009BE98EF13F000AE000C086C04
:10272000091EE86A0922046C051EE86A0522000CED
:1027300000BE8FEF13F00188FF0C09C013F008C032
:1027400012F008500D02F4CF07F0F3CF06F0095055
:102750000E02F4CF09F0F3CF08F00D02F350072674
:10276000F4500822E86A092212500E02F35007269C
:10277000F4500822E86A09220EAEC3EF13F012509B
:10278000085E1350095A13AE000C0D50085E0E502F
:04279000095A000CD6
:0C2794002A0EF66E000EF76E000EF86EB6
:1027A00000010900F550C66F0900F550C76F03E13D
:1027B000C66701D03DD00900F550C16F0900F55042
:1027C000C26F0900F550C36F09000900F550E96EAA
:1027D0000900F550EA6E090009000900F550C46FC0
:1027E0000900F550C56F09000900F6CFC8F0F7CF12
:1027F000C9F0F8CFCAF0C1C0F6FFC2C0F7FFC3C02E
:10280000F8FF0001C45302E1C55307E00900F55089
:10281000EE6EC407F8E2C507F9D7C8C0F6FFC9C015
:10282000F7FFCAC0F8FF0001C607000EC75BBFD79D
:02283000120094
:0E283200D9CFE6FFE1CFD9FFFE0EDB50A96E35
:10284000FD0EDB50A86EA69CA69EA684F29E550E99
:10285000A76EAA0EA76EA682A6B2FED73BEC10F01A
:10286000F28EA694E552E7CFD9FF1200D9CFE6FF4A
:10287000E1CFD9FFFE0EDB50A96EA69CA69EA680D6
:0C288000A85000D0E552E7CFD9FF1200AD
:04288C00056A046A6B
:10289000100EE76ED89008360936043605360D500E
:1028A000045C0E50055805E30D50045E0E50055AA9
:0828B000082AE72EF0D7120000
:0828B80017EE00F027EE00F01E
:1028C000F86A019CCAEC13F06AEC14F0DBEC03F03C
:0428D000FBD7120020
:0228D4001200F0
:0328D600000000FF
:020000040030CA
:0100000000FF
:0100010004FA
:0100020019E4
:010003001EDE
:010005008377
:010006008178
:010008000FE8
:01000900C036
:01000A000FE6
:01000B00E014
:01000C000FE4
:01000D0040B2
:00000001FF
